:100000000C949B010C94D3010C94D3010C94D30158
:100010000C94D3010C94D3010C94D3010C94D30110
:100020000C94D3010C94D3010C94511F0C942520F3
:100030000C946E1A0C94D3010C94D3010C94D3013C
:100040000C94D3010C94D3010C94D3010C94D301E0
:100050000C94D3010C94F51A0C94D3010C94D30195
:100060000C94D3010C94D3010C94D3010C94D301C0
:100070000C94D3010C94D3010C94D3010C94D301B0
:100080000C94D3010C94D3010C94D3010C94D301A0
:100090000C94D3010C94D3010C94D3010C94D30190
:1000A0000C94D3010C94D3010C94D3010763423612
:1000B000B79BD8A71A39685618AEBAAB558C1D3CF9
:1000C000B7CC5763BD6DEDFD753EF6177231BF00BD
:1000D0000000803F05A84CCDB2D44EB93836A902F5
:1000E0000C50B9918688083CA6AAAA2ABE00000036
:1000F000803F1D001B000600643214783C1E1E1455
:100100000A050001010101010101010102020202CF
:1001100002020202020303030303030303040404B1
:10012000040404040505050505060606060607077A
:1001300007070708080808090909090A0A0A0B0B32
:100140000B0C0C0C0D0D0D0E0E0E0F0F0F101011D1
:100150001111121213131414151516161717181857
:1001600019191A1A1B1B1C1D1D1E1E1F20202122BF
:1001700022232424252626272829292A2B2C2D2D05
:100180002E2F30313232333435363738393A3B3C22
:100190003D3E3F404142434445464748494A4C4D15
:1001A0004E4F50515354555658595A5B5D5E5F61DE
:1001B0006264656668696B6C6D6F70727375777871
:1001C0007A7B7D7E8082838587888A8C8E8F9193CF
:1001D0009596989A9C9EA0A2A3A5A7A9ABADAFB1F6
:1001E000B3B5B7BABCBEC0C2C4C6C9CBCDCFD1D4DB
:1001F000D6D8DBDDDFE2E4E7E9EBEEF0F3F5F8FA81
:10020000FDFF060333004B0000001E036100730076
:10021000680074006F006E006D0061007300740070
:10022000650072003700370000000403090409026A
:100230003B00020100A0FA090400000103010100D3
:100240000921110100012240000705810308000176
:10025000090401000103000000092111010001222D
:100260007B0007058203200001120100020000004C
:1002700008EDFE000000010102000105010902A1D4
:100280000185020901A100050919012908150025A8
:100290000195087501810205010930093115812593
:1002A0007F95027508810609381581257F950175AE
:1002B000088106050C0A38021581257F950175080D
:1002C0008106C0C005010980A101850319012AB773
:1002D00000150126B700950175108100C0050C09B5
:1002E00001A101850419012AA002150126A0029589
:1002F0000175108100C005010906A101050719E07B
:1003000029E71500250195087501810295017508F9
:1003100081010507190029FF150026FF00950675C4
:1003200008810005081901290595057501910295B7
:100330000175039101C011241FBECFEFDAE0DEBFCB
:10034000CDBF04B603FE18C080915D0290915E029D
:10035000A0915F02B09160028730904BA740B04BF4
:1003600059F410925D0210925E0210925F02109298
:100370006002E0E0F8E3099511E0A0E0B1E0E6E713
:10038000FCE402C005900D92AE39B107D9F722E026
:10039000AEE9B1E001C01D92AD35B207E1F70E94B0
:1003A00075100C94E5250C940000862B59F443300D
:1003B00048F4E42FF0E0EE0FFF1FEE50FF4F859161
:1003C0009491089581E090E008950E94D5010895E8
:1003D00081E0089581E008950E94EA01089508955A
:1003E0000E94EF010895A5E0B0E0E9EFF1E00C9480
:1003F000522549835A833091A50189819A8131110F
:1004000019C0662399F0222389F00E949507182FBE
:10041000682F89819A810E947A0769817A81812F68
:100420000E944D0E2596E3E00C946E250E948707EE
:10043000182FF3CF0E94950769817A81F1CFFC01D3
:10044000262F408151816281738184810E94F30152
:10045000089581E00895CF93DF93EC0160E00E945E
:100460001F02BE010E94F001DF91CF91089508950F
:100470000E9449060E9437022FEF84E39CE021503E
:1004800080409040E1F700C0000008950E943802CB
:100490000E94191B08950E9438020E943D1B089576
:1004A0000F931F93CF93DF938C0161E00E941F0293
:1004B000EC01B8010E94EC01811106C080E0DF91DF
:1004C000CF911F910F910895B801CE010E9411198B
:1004D0008823A1F3B801CE010E94A717882371F3E6
:1004E000B801CE010E948318882341F3B801CE01E0
:1004F0000E941917882311F3F8018281882361F083
:10050000C330FCE7DF07E9F058F4C115ECE7DE077C
:10051000A9F0C130DC47B9F0C8010E94E801CFCF93
:10052000CB358CE7D807A9F0CC35ECE7DE0771F0C6
:10053000CA35DC4789F70E94C60BEECF0E944602FF
:10054000BDCF0E94CE0B0E944B02B8CF0E94BC0BC5
:10055000E3CF0E94CA0BE0CF0E94501A0E94D7023C
:100560000E94BE1508950E94DB020E9495160E940B
:10057000551A0895089581E008950895CF93DF9363
:10058000D82F0E94BB02C82F882319F08D2F0E94FC
:10059000BD028C2FDF91CF9108950895CF93C82F7E
:1005A0000E94BA028C2F0E94BE02CF91089580E073
:1005B0000E94CE0208950E945F190E94CE02089503
:1005C000CF930E945F19C82F8091A0018C1779F0FA
:1005D000C093A0010E94DA1A6093A1017093A20156
:1005E0008093A3019093A4018C2F0E94CE02CF91FF
:1005F0000895ABE0B0E0EFEFF2E00C9453254F83A9
:10060000588769877A878B8761110E94070B1E8242
:100610001D8285E0FE013796DE01119601900D9254
:100620008A95E1F78C819D81892B61F449815A81FA
:100630006B817C818D819E810E942F0A2B96E2E046
:100640000C946F2589819A8189238F3F79F3CE019C
:1006500001960E9429028111E9CFF0CFFC0180812F
:1006600091810E94C7070895662329F00E94F9101E
:100670000E94CC1108950E945311FACFCF93C82F36
:100680008823B9F08CEF8C0F813AA8F46C2F8091FD
:100690000001909101010E94E119882329F08C2F1B
:1006A0000E94C70A0E94280B8C2F0E94BF0A0E943A
:1006B000280BCF91089580E28C0F883048F4C770E2
:1006C00081E001C0880FCA95EAF70E94EA0AEFCFDD
:1006D000EBE5EC0FE33040F4F0E0E15BFE4F8081AE
:1006E00090E00E948519E5CFE8E5EC0FEB3150F47E
:1006F000F0E0EE0FFF1FE75EFE4F808191810E94C8
:10070000AA19D7CF83E38C0F833198F661E08C2F41
:100710000E943403CECF882381F19CEF980F913A49
:1007200028F40E94C70A0E94280B089590E2980FAF
:10073000983050F4877091E001C0990F8A95EAF7DC
:10074000892F0E94F00AEFCF9BE5980F933028F491
:1007500090E080E00E948519089598E5980F9B31FC
:1007600028F490E080E00E94AA19089593E3980F7E
:10077000933118F460E00E94340308951F93CF93DF
:10078000DF93182FEB010E943E03209739F4812F4D
:100790000E948B03DF91CF911F9108958FE99FE015
:1007A0000197F1F700C000002197EFCF70E060E003
:1007B000893311F460E570E00E94BE030895882338
:1007C00021F00E94EA0A0E94280B0895882321F054
:1007D0000E94F00A0E94280B0895B0E0A0E0E3EF29
:1007E000F3E00C944C256C01D62FC72FFC0112812D
:1007F000058102950F700E94E00AE82E8823E9F037
:10080000E12E1123D1F08C2F807F803451F080E2D3
:100810008D0F8830F8F0011104C08C2F807E80325B
:10082000C9F08091380282FF15C082E00E948B0BD4
:100830000E94E00A91E0E82EE926BC2EB2949FE0E7
:10084000B922FBE0FB15B8F1EB2DF0E0E951FA4DD0
:100850000C943D25E12CF1CF0C2F0F70C07F11F0CF
:100860000295007F112399F0002359F080E28D0F4B
:10087000883010F0D11107C0802F0E94EA0A0E9430
:10088000280B8D2F63C0802F0E94FA0AF8CF8D2F7E
:100890000E948B03002379F080E28D0F883010F0E6
:1008A000D11104C0802F0E94F00A03C0802F0E9443
:1008B000000B0E94280B2B2D2850330B24303105C0
:1008C00020F40E945F190E94CE02EE2089F00E945F
:1008D000DC0A80FD0DC0F60112820E94D60A0E9439
:1008E000D806C6010E9409060E94D60A0E94E806A0
:1008F000CDB7DEB7E9E00C9468252C2F2F70F22ECF
:10090000C07FC03219F0F29480EFF822DD2381F02D
:10091000D13009F449C0112309F451C0002309F46E
:1009200048C0F601858180FFACCF8F70858341C0C0
:100930008091380282FD15C0112359F0FF2029F063
:100940008F2D0E94EA0A0E94280B80E00E943E033D
:10095000B2CF80E00E948B03FF2009F4ACCF8F2D33
:10096000A2CF112381F0011106C00E940A0B8F292A
:100970000E94DF03A0CF0130C1F70E940A0B8F292C
:100980000E94110B98CF011106C00E941E0B8F2DE3
:100990000E94E60390CF013009F48DCF8F2D0E9485
:1009A000E6030E941E0B87CF112329F0063008F0C2
:1009B00082CF8F2DDDCF053008F07DCFE8CF00232B
:1009C00031F3D93349F4FFEF27EE33E0F150204003
:1009D0003040E1F700C000008D2F0E948B036BCFE9
:1009E0008C2F86958695837069F0813009F063CFEE
:1009F0008D2F9C2F9370111102C080E090E00E9417
:100A0000AA1959CF8D2F9C2F9370111102C080E02D
:100A100090E00E9485194FCF612F8D2F0E943403E3
:100A20004ACF8C2F8370A1F5111145CF4D2F4295E0
:100A300046954770440F440F2D2F2F7030E0042E41
:100A400002C0220F331F0A94E2F790E080E0D4FF47
:100A500009C08FE090E002C0880F991F4A95E2F725
:100A600080959095C695C695C370822B932BC23006
:100A700049F058F4C13019F00E94A8061CCF0E941A
:100A80009F0619CF0E94B10616CF0E949C0613CF75
:100A90008695112311F08C2F8170882309F40BCFD8
:100AA0004D2F429546954770440F440F2D2F2F70C0
:100AB00030E0042E02C0220F331F0A94E2F790E0C8
:100AC00080E0D4FF09C08FE090E002C0880F991F3A
:100AD0004A95E2F780959095C695C695C370822B8E
:100AE000932BC23049F058F4C13019F00E9413071B
:100AF000E2CE0E940A07DFCE0E941C07DCCE0E94D5
:100B0000C006D9CECF70112329F08C2F0E94D806B1
:100B10008D2F2ECF8D2F0E94E6038C2F0E94E8068A
:100B2000CACED23F41F160F4D03FB9F0D13F81F05D
:100B3000112309F446C00111A4CE8C2F8F711FC060
:100B4000D33F01F1D43FA1F78091380282FD24C048
:100B50008C2F8F71112311F312C0112341F0053036
:100B600008F0A9CE8C2F8F710E94FA06A4CE063011
:100B700008F0A1CEF7CF8C2F8F711111CFCF0E942B
:100B8000D80699CE112329F08C2F8F710E94CC06A4
:100B900092CE0E94C7068FCE112349F0CF718C2FC1
:100BA0000E94D80663E08C2F0E946D0B84CE81E0FA
:100BB0000E948B0B023008F47ECE82E00E948B0BE9
:100BC0007ACE002359F0D93309F006CF8FEF97EE94
:100BD000E3E081509040E040E1F7FCCE8C2F8F7134
:100BE0009DCF0F931F93CF93DF93EC0168817981A1
:100BF0008A810E94D2078C010E9425070E949B06D1
:100C0000B801CE010E94ED03DF91CF911F910F91AA
:100C10000895CF93DF93EC018B819C81892B29F080
:100C20008881998189238F3F51F4DF91CF91089575
:100C3000CE010E94F105CE010E942B02F6CFCE011B
:100C40000E9450028111F4CF0E94E00A882369F3C8
:100C50008A81882351F38091380282FFE6CF82E0B7
:100C60000E948B0BE2CF90E080E00E94851990E01B
:100C700080E00E94AA190E94070B0E94280B0E9484
:100C8000E8110E94CC1108950E94CF0A0E943306F9
:100C900008950E94F70A0E944406089592959F7055
:100CA000963091F058F4925F9F70923058F4803FE4
:100CB00019F030F4883E30F481E008959A5FF4CF63
:100CC000843FD1F380E00895883EB0F3813FD1F7AF
:100CD000F3CFFC0183819481892B29F0808191815C
:100CE00089238F3F11F480E00895808191810E94D3
:100CF000C7070E944E060895A5E0B0E0E2E8F6E0DE
:100D00000C9453252596E2E00C946F25A6E0B0E004
:100D1000ECE8F6E00C9453252696E2E00C946F255F
:100D200008950E94900608950E9491069093AD0147
:100D30008093AC01089508950E949406089520912F
:100D4000AC013091AD01822B932B0E949406089543
:100D50002091AC013091AD01822393230E9494062F
:100D600008952091AC013091AD01822793270E9414
:100D7000940608950E94900608950E94BA06089568
:100D80000E94BD069093AB018093AA01089590E064
:100D900080E00E94C006089521E030E0A90102C071
:100DA000440F551F8A95E2F7CA010E94C0060895B4
:100DB00021E030E002C0220F331F8A95E2F78091D4
:100DC000AA019091AB01822B932B0E94C00608953B
:100DD00021E030E002C0220F331F8A95E2F7209510
:100DE00030958091AA019091AB01822393230E94B8
:100DF000C006089521E030E002C0220F331F8A951B
:100E0000E2F78091AA019091AB01822793270E947B
:100E1000C00608952091AA013091AB01822B932B3B
:100E20000E94C00608952091AA013091AB0182234F
:100E300093230E94C00608952091AA013091AB012E
:100E4000822793270E94C00608950895262F2770B1
:100E500091E001C0990F2A95EAF723E0769567950E
:100E60002A95E1F7660F771F660F771FFA01E60FE5
:100E7000F71F50E040E0682F70E08191DF0111978B
:100E80009B01042E02C0369527950A94E2F7217043
:100E900021952827292328272C934F5F5F4F443023
:100EA000510559F70895A82FA77023E096958795C7
:100EB0002A95E1F7880F991F880F991FFB01E80F0A
:100EC000F91F50E040E080E0219130E00A2E02C09E
:100ED000369527950A94E2F721703327042E01C036
:100EE000220F0A94EAF7822B4F5F5F4F443051057F
:100EF00059F70895262F911109C0833038F4682FCF
:100F000070E046EA51E0822F0E9426070895911171
:100F10000AC0833030F466EA71E090E00E94530723
:100F2000982F892F089590E0FCCFB0E0A0E0EBE986
:100F3000F7E00C944C257C010091AA011091AB01C3
:100F40008091AC019091AD01082B192BCFE0D0E03E
:100F5000CC24C394D12CBC2EC6010C2E02C0880F09
:100F6000991F0A94E2F780239123892B49F4219752
:100F700090F7B12C8B2DCDB7DEB7E9E00C94682546
:100F8000B7018C2F0E94590E019789F3F3CFCF93AD
:100F9000DF93EC010E949507BE010E94590EDF917C
:100FA000CF9108951F93CF93DF93EB019091A5010B
:100FB000992339F0CB010E94C707DF91CF911F9190
:100FC0000895882369F0CB010E949507182F682F98
:100FD000CE010E947A07BE01812F0E94590EEDCFEB
:100FE000CB010E948707182FF6CF1F93CF93DF9373
:100FF000C091AE0116E08091AF018C1304C0DF9167
:10100000CF911F910895D0E01C9FF0011D9FF00D1E
:101010001124E055FE4F40815181628173818481AA
:1010200095810E9486062196C770E5CF4091E00128
:101030005091E1016091E2017091E3018091E4013E
:101040009091E5010E94860608952091AE0190914D
:10105000AF0156E0291302C080E0089530E0529FAE
:10106000F001539FF00D1124E055FE4F718176136E
:1010700006C07081781303C07281741304C02F5F9F
:101080003F4F2770E7CF81E008951F93CF93DF9301
:101090008091E501807F09F04BC08091E2018823B7
:1010A00009F446C08091AE01C091AF014091E001CA
:1010B0005091E1016091E3017091E401D42FD523B7
:1010C00016E0C817A9F190E061157105A9F1DF3F9D
:1010D00099F1189FF001199FF00D1124DF01A0551F
:1010E000BE4F11962C911197251326C02C912413D5
:1010F00023C012962C91129721111EC013962D9188
:101100003C91261B370B283C3105B0F48091E5015A
:101110008F7080618093E501EB54FE4F80818F706A
:101120008061808380EE91E00E9409060E94F507AD
:10113000DF91CF911F91089501968770C2CFA1E1F1
:10114000B0E0E5EAF8E00C9449258C0185E0F8016F
:10115000DE011D9601900D928A95E1F7F801F2806B
:1011600080EEA82E81E0B82E4091E3015091E40179
:101170004115510509F45AC19091E0012091E10116
:10118000892F82238F3F09F451C1C080D180838091
:101190009480E090E201B401641B750BEE2009F429
:1011A000F6C08091E501382F307F683C710508F06A
:1011B000AFC031117AC0EF2C2D1116C09C1114C094
:1011C000F11012C08F7080618093E5010E941608B3
:1011D000C5010E9409068091E501F80185838E2DE5
:1011E0006196ECE00C94652581149104C9F18C2D75
:1011F0008D218F3FA9F181E08F2580FF05C04F2D04
:101200006D2D8C2D0E9425088114910459F18C2D8F
:101210008D218F3F39F181E08F25F82FF170BF2E9E
:1012200080FF39C04F2D6D2D8C2D0E942508A82ED2
:10123000811131C0CD86DE868D859E850E94C707CF
:10124000292F22952F70243078F49F702230A8F037
:101250009923B9F0F8019581907F99F4EA2CBFCFDA
:1012600080E0CBCF80E0D9CF2A5F2F70223068F0AA
:10127000C8010E940906AB2CF1CF992311F08823F5
:1012800069F3805E883050F3F3CF803F38F3815F9D
:10129000833070F7E3CFFF2009F4A1CF8091E501FF
:1012A00081608093E501E12C9ACF2D1105C09C113E
:1012B00003C0FF2009F486C0C8010E946906882384
:1012C00019F1FF2009F18091E501803270F0209141
:1012D000E0013091E10138872F8319869B868A8649
:1012E0008C87CE0107960E94090686E0F801A0EEE1
:1012F000B1E001900D928A95E1F70E9445080E94A5
:101300001608EE24E3946BCFC8010E940906F9CFBA
:10131000311114C0782D998A888AA6016F2D898988
:101320000E947C0680EE91E00E94090686E0F501AD
:1013300011928A95E9F70E941608B5CF2D110EC0BB
:101340009C110CC0F1100AC08583C8010E940906D7
:1013500086E0F50111928A95E9F741CFC8010E9414
:101360006906882389F2FF2079F28091E5018032B5
:1013700008F4BBCF2091E0013091E1013A83298349
:101380001B829D828C828E83CE010196ACCF683CFD
:10139000710508F03DC0EF2CFF2009F4B5CF2D11E9
:1013A00029C09C1127C08091E50180FD1AC0982FAB
:1013B000907FB9F08583903F31F0982F907F905FB8
:1013C0008F70892B8583C8010E94090686E0F80189
:1013D000A0EEB1E001900D928A95E1F70E94160807
:1013E000FECE86E0F801A0EEB1E001900D928A9564
:1013F000E1F7F5CEC8010E946906811176CF809190
:10140000E50181608093E501C8010E940906E7CEED
:10141000782D998A888AA6016F2D89890E947C0679
:1014200086E0F50111928A95E9F7D8CFFF2009F4FB
:101430006BCFC8010E946906E82E882309F464CFA7
:1014400086E0F801A0EEB1E001900D928A95E1F7F7
:1014500080EE91E00E942E030E944508BFCFACE0D1
:10146000B0E0E5E3FAE00C9452254F835887698792
:101470007A878B879C87CE0107960E949F088823D6
:10148000B1F08A859B85892B39F04F815885842F4F
:1014900085238F3F09F06CC016E08091AE019091DA
:1014A000AF01891343C02C96E3E00C946E2586E0CF
:1014B000FE013796DE01119601900D928A95E1F7B3
:1014C0008A859B85892B41F38F81988589238F3F5E
:1014D00019F32091AF0130E0C90101968770992777
:1014E0004091AE014817190671F40E944906109206
:1014F000AF011092AE0186E0E0EEF1E0DF011D9257
:101500008A95E9F7C9CF96E0929FD001939FB00DDD
:101510001124A055BE4FFE01319601900D929A956F
:10152000E1F78093AF010E94F507B6CF819FC0011C
:10153000112480559E4F0E949F08882309F4B3CF41
:10154000E091AE011E9FF0011124E055FE4F408155
:10155000518162817381848195810E948606809188
:10156000AE0190E00196877099278093AE0195CFE8
:1015700069857A858B859C850E9486068DCF682F2C
:1015800080910001909101010E94171A0895682F1F
:1015900080910001909101010E941A1A0895809192
:1015A0000001909101010E941D1A08958091EE01A1
:1015B00085958595859508958091EE0187700895AC
:1015C0009091EE01977081E009F480E00895809198
:1015D000F90108959091F901892B8093F9010895FB
:1015E00080959091F90198239093F90108951092B4
:1015F000F90108959091F801892B8093F8010895DD
:1016000080959091F80198239093F8010895109295
:10161000F80108958091EF01089508950E940D0B3F
:1016200008959091380292FF08C09091EF019817A9
:1016300021F08093EF010E940E0B08958091EF013D
:10164000882329F01092EF0180E00E940E0B08958C
:10165000CF93DF93E0910001F09101018091F901B6
:101660008083E0910001F091010180819091F80167
:10167000892B80839091EF01992381F0E091000103
:10168000F09101018081892B8083809100019091EC
:1016900001010E94CF1981110E941E0BC09100010F
:1016A000D091010148E050E066EE71E0CE010E9469
:1016B0008725892B59F088E0FE01A6EEB1E0019064
:1016C0000D928A95E1F7CE010E946C19DF91CF91BE
:1016D000089508950E94690B08959091380292FF31
:1016E00011C098E0899F90011124622B6093EE0154
:1016F0000E94D8068091EE018595859585950E947A
:101700006A0B08950E94D80608951092EE0180E0B9
:101710000E946A0B08959091EE0180958923809331
:10172000EE01282F277091F4282F082E000C330B80
:101730009217130659F09091380292FF07C08595D1
:10174000859585950E94E8060E94850B08959091E5
:10175000380292FB222720F9281769F080FB92F9C2
:101760009093380280913702909138020E94EF0BDB
:1017700082E00E948B0B08958091380282FB8827BB
:1017800080F991E089270E94A70B089581E00E94CB
:10179000A70B089580E00E94A70B08956FEF7FEFDD
:1017A00090E080E00E94CF25089590E080E00E94C4
:1017B000AB2521E0873E9E4F09F020E0822F08955F
:1017C00082E090E00E949D25089583E090E00E94D1
:1017D0009D25089584E090E00E94AB250895BC010A
:1017E00084E090E00E94CF250895AB01BC018FE01A
:1017F00090E00E94C3250895AB01BC0183E190E015
:101800000E94C325089560E070E0CB010E94FC0BAC
:10181000089560E070E0CB010E94F50B0E94030C7C
:10182000089567EE7EEF90E080E00E94CF2560E0B3
:1018300082E090E00E94B12560E083E090E00E94A9
:10184000B1251092AD011092AC0160E074E184E02A
:1018500090E00E94CF2560E086E090E00E94B125F4
:101860006FEF87E090E00E94B12540E050E0BA01C0
:1018700088E090E00E94C32560E08DE090E00E9447
:10188000B12540E050E0BA0188E190E00E94C32514
:1018900060E087E190E00E94B12540E050E0BA01AD
:1018A0008CE190E00E94C32570E060E080E290E06F
:1018B0000E94CF2540E050E0BA0188E190E00E940C
:1018C000C3250E94090C08950E94110C0895682FE9
:1018D0008EE090E00E94B1250895A5E0B0E0E3E736
:1018E000FCE00C9451250E94CE1A8C018091FA01E3
:1018F0009091FB0180179107A1F08FEF89838A8374
:101900001B820E94CE1A8160782F9D838C8349812F
:101910005A816B818D810E94F9021093FB01009323
:10192000FA012596E4E00C946D250E94DA1A609382
:101930000102709302028093030290930402609369
:10194000FD017093FE018093FF01909300020895C2
:10195000089508950E94A90C089508950E94AD0C61
:10196000089581E0089583E49FE00E9455190E9444
:10197000A80C0E94AA0C08950E94B10C08950E9420
:10198000BC0C0895089508950E94C20C0E94C30CD7
:1019900008950E94620F0E94CD0208950E94C51A08
:1019A0000E94F80F0E94C90C0E9459160E94AE0CAA
:1019B0000895A5E0B0E0EFEDFCE00C944E250E9408
:1019C000B10C81110CC00E946D0C0E949F160E94E8
:1019D0000A120E94E0022596E7E00C946A250E9414
:1019E00004101091FC0180E00E94880F181759F331
:1019F0008091050281FD0E948E0F0E94BF0CD82E9F
:101A000080E00E94880F182F8091FC01181721F1A7
:101A1000E12EE82600E0FF24F3948E2D8F21B1F013
:101A2000DD20A1F009831A8291E0812F8F2109F432
:101A300090E09B830E94CE1A8160782F9D838C83D7
:101A400049815A816B818D810E94F9020F5FFF0CE1
:101A5000033019F71093FC010E94950CB6CF1F9329
:101A6000CF93DF930E945E0EEC01C11580E5D8078D
:101A7000F0F5C11580E4D80708F09CC0C03ED10540
:101A800020F5CD3CD10508F082C0C83AD10578F4E4
:101A9000C53AD10508F073C0C130D10519F12097BE
:101AA00009F1C430D105F0F4D0E0C0E01BC0C33C64
:101AB000D105D0F7C85AD0E0CC0FDD1FCE5ADE4F8B
:101AC0000990D881C02DD4640DC0C11580E2D8071B
:101AD00008F0D1C0C11581E0D80708F05AC0C83E4F
:101AE000D10510F7CE01DF91CF911F910895C03637
:101AF00082E5D80718F5C03482E5D80708F06BC036
:101B0000C03282E5D80708F05FC0C11582E5D8076A
:101B100008F497C02C2F2695269580E2289F9001E7
:101B200011248C2F8370C1E0D0E002C0CC0FDD1FE8
:101B30008A95E2F7C22BD32BDD68D4CFC03A82E579
:101B4000D80760F4C03882E5D80708F459C0CF71CF
:101B5000D0E0DC2FCC27C46FD06AC4CFC03C82E574
:101B6000D80708F462C0C03E82E5D80708F09CCFD1
:101B7000DC2FCC27CC27DF71C06FD06AB3CFC55A1A
:101B8000D0E0C857DE4FC881D0E0D064ABCFD0657D
:101B9000A9CF8D2F0E94000F182FCE0199270E94E8
:101BA0005E0EC12FD0E0DC2FCC27CC27DF71C82BF5
:101BB000D92B98CFCE0199270E945E0ECC27DF70DB
:101BC000C82BD92BD06A8ECFCF71D0E0DC2FCC2799
:101BD000C16FD06A87CF2C2F26952695277080E27B
:101BE000289F900111248C2F8370C1E0D0E002C0A7
:101BF000CC0FDD1F8A95E2F7C22BD32BDC6872CFA6
:101C00002C2F26952695277080E2289F900111247D
:101C10008C2F8370C1E0D0E002C0CC0FDD1F8A950D
:101C2000E2F7C22BD32BDA685DCF8C2F8F710E9425
:101C3000000FC82FD0E0DC2FCC27CC27DF71D0627B
:101C400051CF8C2F8F710E94000F55E0D695C7950C
:101C50005A95E1F7CF70D0E0DC2FCC27282F30E069
:101C600084FF05C044E0220F331F4A95E1F7C22BE1
:101C7000D32BD06937CF8D2F8F710E94000F182F73
:101C8000CE0199270E945E0EC12FD0E0DC2FCC2719
:101C9000CC27DF71C82BD92BD2CF462F711106C0AC
:101CA000633020F460E00E94E501089590E080E058
:101CB00008950E944D0E0E942F0D089582389105BF
:101CC000B9F1B0F48133910509F47DC048F489324B
:101CD000910509F46DC08A32910509F47BC008951D
:101CE0008533910509F45FC08933910509F10895A1
:101CF000833E9105D9F138F4803E910529F1823E69
:101D0000910579F10895863E9105D9F1873E9105B7
:101D100009F43EC0843E910541F52091380221FF2F
:101D200024C08091370284FD19C087EE90E00895A9
:101D300020913702237009F05AC02091380223FF06
:101D400014C089E290E008952091370220FD38C048
:101D50003091380230FF09C024FF43C090E080E09A
:101D600008952091370222FDF7CF08952091370280
:101D700022FD3AC03091380230FD39C024FFF5CF42
:101D8000EDCF2091370223FFF0CF24FDE7CFCDCF59
:101D90002091370223FD2EC03091380231FFEECF63
:101DA00084EE90E008952091370225FFDECFC9CF61
:101DB0002091370225FD21C02091380223FFD5CF85
:101DC00089E390E0D2CF2091370226FFCECF8AE27E
:101DD00090E008952091370226FFC7CF81E390E07D
:101DE000089583EE90E0089582EE90E0089580EEED
:101DF00090E0089586EE90E0089585E390E00895E0
:101E00009091370292FF06C0282F28712830F9F4EC
:101E1000877F846093FF06C0282F28712831F1F452
:101E2000877E84612091380220FF06C0382F3871E8
:101E30003830D9F4877F816021FF06C0282F2871B0
:101E40002831D1F4877E816194FD877E0895282F03
:101E500024712430F9F68B7F8860DCCF282F247121
:101E6000243101F78B7E8861DDCF382F317131301D
:101E700019F78E7F8860E0CF282F2171213121F75B
:101E80008E7E8861E1CF80E008950E94CE0B089598
:101E90000E9404102FEF86E791E02150804090408F
:101EA000E1F700C000000E94041080E00E94880F4B
:101EB00080FF04C00E94450F0E94191B08950E94D4
:101EC000480F08950E94D50B811102C00E94640C36
:101ED0000E94E00B809305020E94EA0B9093380267
:101EE000809337020E945F0F0E94E50B90E00E94F2
:101EF0009C068091AA019091AB010E94BD060895B5
:101F000008950E94800F089508950E94840F0895F7
:101F1000E82FF0E0E65CFD4F80810895089580EAA7
:101F20008A95F1F7089500C008950E948F0F0895D3
:101F3000F894E82FE295EF70F0E031A1282F2F7090
:101F400081E090E001C0880F2A95EAF7982F9095DC
:101F5000932391A392A1892B82A37894089586E379
:101F60000E94980F87E90E94980F86E90E94980FB7
:101F700084E90E94980F08950F931F93CF93DF93E6
:101F80008C01C62FF894269A2E9878940E94930F6D
:101F9000EBE8F1E081E0D0E091919F3F79F0A92F4B
:101FA000A295AF70B0E090962C9130E09F7002C087
:101FB000359527959A95E2F7982F20FD90E0D92B3B
:101FC000880F91E0EE38F90739F786E30E94980F01
:101FD00061E0D11101C060E08C2F0E94950FF801E3
:101FE000EC0FF11DD083DF91CF911F910F910895D8
:101FF0000E94AF0F10923A021092390281E00E94C3
:1020000029100E94810F0895A1E0B0E0EAE0F0E11C
:102010000C945225198260E0CE0101960E94BC0FFB
:1020200090913902898121E0981301C020E0981332
:102030008093390241E06AE372E089E392E00E9412
:102040002A10182F0E94850F812F2196E3E00C940F
:102050006E250895CF92DF92EF92FF920F931F9318
:10206000CF936C017B01042F222349F081E0809300
:1020700008020E94CE1A9093070280930602C09134
:102080000802C1110AC0C0E08C2FCF911F910F919F
:10209000FF90EF90DF90CF9008958091060290918D
:1020A00007020E94E61A059770F310E0A801B60136
:1020B000C7010E948725892B41F0A801B601C701FD
:1020C0000E94942510920802DFCFC0E0FBCF0E944F
:1020D000A21C0E94CE0C0E94AF1C08950E94B41C4A
:1020E0000E94D90C0E94CE1C08950E94671A0E947B
:1020F000881C0E94B30C0E9467100E946E100E9400
:10210000C40CFBCF80910F0280FF0DC060910701CE
:1021100070E0660F771F6038710570F56115710505
:1021200069F1862F089581FF07C06091070184E05F
:10213000689FB0011124EFCF6091070182FD0AC0B2
:1021400080910E028823A9F0209106016091070179
:10215000821710F088E0ECCF869FC001112433E095
:10216000880F991F3A95E1F7622F70E00E942925A8
:10217000D2CF68E070E0D5CF8FE7089581E0089571
:1021800080910F0280FF0CC06091030170E0759593
:102190006795759567956115710549F1862F0895C5
:1021A00081FF06C06091030170E075956795F3CFDC
:1021B0006091030182FD0BC090910D029923A1F063
:1021C0006091020180910301961738F0682F70E04A
:1021D0006038710500F38FE70895899FC0011124CD
:1021E00070E00E942925F4CF61E070E0D7CF81E054
:1021F00008958D3C31F40E948210819580931302E2
:1022000008958E3C19F40E948210F8CF8F3C31F46F
:102210000E9482108195809312020895803D19F4E6
:102220000E948210F8CF893D29F40E94C01080934B
:10223000140208958A3D21F40E94C0108195F7CFC1
:102240008B3D31F40E94C010819580931502089552
:102250008C3D19F40E94C010F8CF9FE2980F98307F
:1022600070F4815D990B21E030E001C0220F8A9566
:10227000EAF780911102822B8093110208958D3D1F
:1022800031F480910F02816080930F0208958E3D9A
:1022900021F480910F028260F7CF8F3DB9F78091D2
:1022A0000F028460F1CF409112028D3C59F480916D
:1022B000130287FF0DC01092130241110BC0109240
:1022C0000E0208C08E3C81F48091130218169CF314
:1022D000442381F08091140290911502892B09F01A
:1022E0005AC010920D0208958F3C49F447FFF0CF79
:1022F00010921202809113028111ECCFE0CF803D49
:1023000019F41416ACF3E4CF90911402893D29F42A
:102310001916F4F610921402DBCF8A3D19F497FFD8
:10232000D7CFF8CF909115028B3D29F497FFD0CFEE
:1023300010921502CDCF8C3D19F41916CCF3C8CFED
:102340009FE2980F983090F4815D990B21E030E086
:10235000B90102C0660F771F8A95E2F7CB0180951D
:1023600090911102892380931102B2CF8D3D31F4F7
:1023700080910F028E7F80930F02AACF8E3D21F4B1
:1023800080910F028D7FF7CF8F3D09F0A1CF809113
:102390000F028B7FF0CF08950E94CE1A9C0190917E
:1023A000120280911302982B21F030930C0220939B
:1023B0000B029091140280911502982B21F030931A
:1023C0000A022093090280E192E00E9477190895A1
:1023D00086E0E0E1F2E0DF011D928A95E9F71092D4
:1023E0000E0210920D0210920F020895FC018281DC
:1023F00081110EC0838181110BC08481811108C0BD
:1024000091E08581811101C090E0892F817008954C
:1024100081E0FCCFA6E0B0E0E0E1F2E10C945225CF
:1024200086E0E0E1F2E0DE01119601900D928A95DE
:10243000E1F71092120210921302109214021092FD
:1024400015028B819C81892B89F080910B029091E0
:102450000C020E94E61AAC0190910E029923C9F178
:10246000809108018417150608F440C08D819E8173
:10247000892B91F08091090290910A020E94E61A3C
:10248000AC0190910D02992309F471C0809104016F
:102490008417150608F479C0BE016F5F7F4F80E195
:1024A00092E00E94241A811105C080E192E00E940E
:1024B000F61181110E94CC1186E0FE013196A0E157
:1024C000B2E001900D928A95E1F72696E3E00C9434
:1024D0006E25209109018AE0289F9001112424177C
:1024E000350720F69F5F90930E0202C09F3FD1F701
:1024F0001B81112359F00E9482109FEF11160CF4DA
:1025000091E0899F802D1124809312021C81112358
:1025100059F00E9482109FEF11160CF491E0899FF0
:10252000802D11248093130230911202332309F479
:102530009DCF20911302222309F498CF45EB340359
:10254000C0011124992359F09093120245EB240302
:1025500090011124332339F03093130287CF81E0A7
:1025600080931202F3CF81E0809313027FCF2091FA
:1025700005018AE0289F900111242417350708F0EF
:102580008BCF9F5F90930D0202C09F3FD1F71D81BB
:10259000112359F00E94C0109FEF11160CF491E026
:1025A000899F802D1124809314021E81112359F0DC
:1025B0000E94C0109FEF11160CF491E0899F802DAE
:1025C00011248093150230911402332309F464CF4F
:1025D00020911502222309F45FCF45EB3403C0019B
:1025E0001124992359F09093140245EB2403900190
:1025F0001124332339F0309315024ECF81E08093BC
:102600001402F3CF81E08093150246CFEF92FF9240
:102610000F931F93CF93DF93EB01E82FD1110EC0DF
:10262000442321F0F0E0EE5FFE4FE4916E2F7E2F09
:102630008E2FCDB7DEB7E6E00C946B250D2F10E0A2
:10264000282F30E0442329F02E5F3E4FF9012491DA
:1026500030E0F6E0CF9FC0011124EFEFF0E0BF01C2
:102660000E941525AB018C2F90E0880F991FA5E5DE
:10267000A49FB001A59F700D1124861B970B982F66
:10268000990F980FBF01601B710B629FD001639F70
:10269000B00D729FB00D11248B2F9D9FB00111249E
:1026A000672F7727EF01C61BD70BBE01629FE001A2
:1026B000639FD00D729FD00D11247F01E91AF1089C
:1026C000E09EB001E19E700DF09E700D1124672F09
:1026D0007727E61BF70BE29F8001E39F100DF29F27
:1026E000100D1124E12F722F4230510599F048F45A
:1026F0004115510569F04130510581F0EB2F8D2FC7
:1027000007C04430510569F080F046305105B1F7FB
:102710006E2F8FCFE22F7B2F812FFACFE22F7D2FCD
:10272000F7CFEB2F822F712FF3CF7B2F822FED2F3F
:10273000EFCF41E00E940613089508950E94991377
:102740000895CF93DF93762FE901682F842F0E949D
:102750009E13798368838A83DF91CF910895809156
:102760003B02982F9E7F29F48170826080933B0208
:1027700008958E31E8F381708C61F8CF88E090E0A5
:102780000E94A5250895CF92DF92EF92FF926B01F0
:102790007C010E94AF13B701A60188E090E00E947F
:1027A000C325FF90EF90DF90CF900895EBE3F2E028
:1027B0008DE0808311828FEF828383831482608116
:1027C0007181828193810E94C313089580913B029D
:1027D00080FF02C08695089580E0089590913F02A1
:1027E000933018F49F5F90933F02882351F06091DB
:1027F0003B0270913C0280913D0290913E020E940A
:10280000C313089581E00E94EE13089590913F0252
:10281000992319F0915090933F02882351F06091D1
:102820003B0270913C0280913D0290913E020E94D9
:10283000C313089581E00E940614089570E00E9479
:102840007B17089560910B0180913B0280FF0BC0C4
:1028500080910A0123E0829FC0011124805C9D4F7A
:102860000E941E14089580910C0190910D0123E0A7
:10287000829FF0011124E05CFD4F891748F7118217
:10288000108212828F5F3396F8CF90913B0290FFB7
:102890000EC090910C0120910D0133E0939FF00147
:1028A0001124E05CFD4F921718F00E942214089545
:1028B0008183608342839F5F3396F5CFA3E0B0E0CE
:1028C000E4E6F4E10C94532590913B0290FF0AC09A
:1028D0009E012F5F3F4F0E94A1134B8169818A8126
:1028E0000E9445142396E2E00C946F25CF93DF936A
:1028F000EC016C8170E090E080E00E94162320E003
:1029000030E04FE753E40E9439222BED3FE049E4E9
:1029100050E40E943F240E94AC240E94B3222BE486
:102920003AE34EE25FE30E94CC2120EF3BEF48ED1B
:1029300052E40E943F240E94E522462FEBE3F2E09E
:10294000628181810E945E148C818F5F8C83DF9114
:10295000CF910895CF93DF93EC01EBE3F2E0438155
:1029600062818C810E945E148C818F5F8C83DF91E9
:10297000CF910895A3E0B0E0E0ECF4E10C944F2592
:10298000082FF62E142FE22E80913B0280FF28C0E4
:10299000E82FE695F0E0E257FE4F908190931F02FA
:1029A0008E7F823009F59E012F5F3F4F802F0E945E
:1029B000A1134B8169818A810E94451400933C02D6
:1029C000F0923D0210933E02EE2051F060913B02E6
:1029D00070913C0280913D0290913E020E94C3138F
:1029E0002396E6E00C946B25923019F410913E0288
:1029F000E5CF963019F400913C02E0CF9930F1F622
:102A0000FACFEBE3F2E09181282F4381628187E3E3
:102A1000890F0E94BA14089581E00E94011508955B
:102A2000EBE3F2E09181282F4381628189EC890FE9
:102A30000E94BA14089581E00E9410150895EBE3F6
:102A4000F2E0628127E3620F08F46FEF282F4381E1
:102A500081810E94BA14089581E00E941F15089593
:102A6000EBE3F2E0628127E3621B08F460E0282FC9
:102A7000438181810E94BA14089581E00E9430153B
:102A80000895EBE3F2E0438124E6420F08F44FEFB0
:102A9000282F628181810E94BA14089581E00E94EA
:102AA00041150895EBE3F2E0438124E6421B08F46C
:102AB00040E0282F628181810E94BA14089581E04C
:102AC0000E945215089520E00E94BA140895EF92D2
:102AD000FF921F93CF93DF93EC0110E0EE24EA9472
:102AE000F12C60910E01161770F00E9422149A8149
:102AF0008C8190FF27C08F5F8C83DF91CF911F91D6
:102B0000FF90EF90089520910C01422F410F55271F
:102B1000551FCA019A01220F331F280F391F205C4D
:102B20003D4F70E0C7010E942925962F8C8140916E
:102B30003E0260913D02199F800D11240E94A11355
:102B40001F5FCFCF8150D8CFEBE3F2E080818E7F43
:102B5000808360817181828193810E94C31310926E
:102B600020020E9422140895EBE3F2E080818E7F20
:102B70008083109220020E94221408951092200255
:102B800080911D0281110AC081E080931D02809115
:102B90003B02817080931C020E94B41508956091DD
:102BA0003B02669570E041E050E08FE091E00E94CA
:102BB0007A25892B19F481E0809320020E94CE1A95
:102BC0009093170280931602089590913B0290FF14
:102BD0002BC09170811129C0926090933B026623B3
:102BE00051F060913B0270913C0280913D029091C6
:102BF0003E020E94C31360913B02669570E041E083
:102C000050E08FE091E00E947A25892BA9F0109284
:102C1000200281E08093190240913E0260913D02C2
:102C200080913C020E94631508958F3010F09C61E2
:102C3000D4CF880F982BD1CF0E94CF15EACF682F21
:102C400090913B02969581E0890F8F3008F081E0EA
:102C50000E94E515089581E00E941F160895682FCF
:102C600090913B0296958FEF890F09F48EE00E94B8
:102C7000E515089581E00E942F16089561E00E94F5
:102C8000E5150895EBE3F2E080818160808386950D
:102C90000E943E16089580913B0280FF03C00E946F
:102CA000A41508950E944216089560E00E94E5155B
:102CB000089580911E0281112EC00E94D50B8111B2
:102CC00004C00E94640C0E94D6130E94BE1360933D
:102CD0003B0270933C0280933D0290933E026E7FD4
:102CE00061F40E94D6130E94BE1360933B0270935E
:102CF0003C0280933D0290933E020E94AF131092DB
:102D0000200280913B0280FF03C086950E945516E9
:102D100081E080931E020895EBE3F2E08081816000
:102D2000808386950E945516089510921D02809109
:102D30001C0281110E948C160E94CF1508950F93DA
:102D40001F93CF93DF93809120028823B9F1809164
:102D50001F02E0913B02E695E81BE09318028230E7
:102D600091F5F0E0E250FF4FE491CE2FD0E006E77E
:102D700014E180911902882361F0109219020E94D7
:102D8000CE1A909317028093160210921B02109293
:102D90001A020E94CE1AE0911602F09117028E1BC1
:102DA0009F0B8F3F9F4750F4CE0FDF1FD09317022A
:102DB000C093160286E192E0F8010995DF91CF9168
:102DC0001F910F910895863049F4F0E0E550FF4FD0
:102DD000E491CE2FD0E00AEA14E1CBCFC0EDD7E0EA
:102DE0000DE913E1893029F6E695F0E0E850FF4F50
:102DF000E491CE2FD0E007E615E1BBCFFA018111B7
:102E000001C0FB0109950895CF93DF93C82FD62FFA
:102E10000E94E6138C1748F00E94E6138D1728F4E1
:102E20000E942B16DF91CF9108958C2F0E943E16A1
:102E3000F9CF1F93CF93DF93EC01FB0112811111A6
:102E400010C00E94E70A8272FE01E052F847E531A5
:102E5000F10508F04EC0ED50FA4D0C943D250E944E
:102E60004B16812FDF91CF911F9108954AE356E1D0
:102E70006BE276E10E94FE16F4CF4BE256E16AE384
:102E800076E1F8CF4BE155E16CE075E1F3CF4CE032
:102E900055E16BE175E1EECF4DE355E16CE275E193
:102EA000E9CF4CE255E16DE375E1E4CF4FE555E143
:102EB0006EE475E1DFCF4EE455E16FE575E1DACF01
:102EC0004AE154E162E074E1D5CF42E054E16AE1C5
:102ED00074E1D0CF81E00E943E16C3CF65E082E06E
:102EE0000E940417BECF68E086E0FACF6EE089E06A
:102EF000F7CF11E0B6CF209A45B14E7F55B1516062
:102F0000EFB7F8949B01220F331F260F371F280FAE
:102F1000391F2817390741F4EFBF8FE594E0019777
:102F2000F1F700C000000895DC016D91CD0178E05B
:102F300055B9000000C067FF45B9660F000000C02A
:102F400000C000C045B900C07A9591F7E2CFCF9399
:102F5000DF93EC01FB018281882309F4D2C09E013A
:102F600030572332310508F0B2C00E94EA0B90932B
:102F7000380280933702FE01E150F047E232F1055A
:102F800020F4E85FF94D0C943D2580913702816073
:102F90008093370293C08091380288608093380212
:102FA0008DC0809137028260F3CF809137028460B8
:102FB000EFCF809137028860EBCF8091380281603B
:102FC000EDCF809138028260E9CF80913702806135
:102FD000DFCF809137028062DBCF8091370280643F
:102FE000D7CF0E944906809137028068D1CF809167
:102FF00037028C60CDCF809138028360CFCF809133
:1030000037028E7FC5CF80913802877FC7CF8091EE
:1030100037028D7FBDCF809137028B7FB9CF8091F2
:103020003702877FB5CF809138028E7FB7CF8091EE
:1030300038028D7FB3CF809137028F7EA9CF8091E8
:1030400037028F7DA5CF809137028F7BA1CF0E9461
:103050004906809137028F779BCF80913702837F1B
:1030600097CF809138028C7F99CF8091370282FB75
:10307000992790F921E0922790FB82F990FB83F940
:1030800087CF80913802982F909591708E7F892BF1
:1030900090FB81F983CF90913702892F8F7B96FF28
:1030A000806476CF0E94490690913702892F97FB62
:1030B00087F980586DCF81E00E94670C80913702BC
:1030C000909138020E94EF0B0E94490680E0DF9148
:1030D000CF91089580E0F0CF90913702892F8F7EB5
:1030E00094FF806155CF90913702892F8E7F90FF9A
:1030F00081604ECF90913802892F877F93FF88603F
:103100004DCF81E0E4CFCF93DF93EB0186319C4735
:1031100011F50E94E70A9A81992399F08A7A91E041
:1031200009F490E090932102811109C089E20E9484
:10313000BF0A0E94280B80E0DF91CF91089585E3BC
:10314000F6CF80912102811104C089E20E94C70A52
:10315000F0CF85E3FBCF81E0EFCF0F931F93CF93A9
:10316000DF93C42FD22FFC0182818823C9F04093C2
:1031700024020E94CE1A909323028093220280E2BE
:103180008C0F883040F4C77081E001C0880FCA9569
:10319000EAF70E94DF03DF91CF911F910F9108950D
:1031A00010912402141332C08091220290912302C4
:1031B0000E94E61A883C910548F5C0E2CD0F1D1724
:1031C000B9F080E2810F883040F4177081E001C0CF
:1031D000880F1A95EAF70E94E603C83048F481E0A8
:1031E0009D2F977001C0880F9A95EAF70E94DF0320
:1031F000802F0E94D603C83070F6D77081E001C0DE
:10320000880FDA95EAF70E94E603C5CF80E28C0FBB
:10321000883008F6C77081E001C0880FCA95EAF7C8
:10322000F2CF0F93DB0188519C4787309105A0F5C1
:10323000FC01E65DF94D0C943D2506E221EE41EEE0
:103240006AE17CE7CD010E94AD1880E00F910895FE
:1032500007E225EE45EE6BE17CE7F4CF06E221EED6
:1032600040EE68E17CE7EECF07E225EE44EE69E14F
:103270007CE7E8CF06E221EE42EE6CE17CE7E2CFAC
:1032800007E225EE46EE6DE17CE7DCCF08E221E0C7
:1032900045EE6EE17CE7D6CF12968C91882319F02B
:1032A00010922402D3CF81E0D1CF90939F018093DD
:1032B0009E01089590932A02809329020895E09137
:1032C0002902F0912A02309729F00190F081E02D37
:1032D0000995089580E00895E0912902F0912A026D
:1032E000309721F00280F381E02D09950895E09157
:1032F0002902F0912A02309739F022E0DC012C9368
:103300000480F581E02D09950895A3E0B0E0EBE895
:10331000F9E10C94532520912702309128022817B7
:103320003907A1F09093280280932702E0912902A7
:10333000F0912A02309751F023E029839B838A83FE
:103340000680F781E02DCE01019609952396E2E0F3
:103350000C946F25A3E0B0E0E0EBF9E10C94532569
:10336000209125023091260228173907A1F0909369
:10337000260280932502E0912902F0912A023097DB
:1033800051F024E029839B838A830680F781E02D16
:10339000CE01019609952396E2E00C946F259C01DD
:1033A0002E5F3F4FAC01485F5F4F80E02417350729
:1033B00009F40895F90191919F019923B9F38F5F61
:1033C000F5CF662349F0FC01329608962191261725
:1033D00029F0E817F907D1F780E0089581E0089512
:1033E0009C01FC0132969FEF80E04191461751F01D
:1033F0009F3F19F4411101C0982F8F5F8630A9F7C4
:103400009F3F09F40895290F311D97FD3A95F90161
:1034100062830895FC01329608962191261303C019
:10342000DF0111971C92E817F907B9F708950E9478
:10343000F01908950E940A1A0895029626E0FC01E8
:1034400011922A95E9F7089546E050E00E948725F9
:1034500021E0892B09F420E0822F089508950E942D
:103460002E1A0895811106C081E080932B020E94DC
:103470002F1A089582E0F9CF83E080932B020E94F7
:103480002F1A08950E94321A089581E080932B022A
:103490000E942F1A08950E94451A089508950895CC
:1034A0000E944F1A0895089508950E944E1A089593
:1034B0000E94531A0E9404100E94541A80E00E9435
:1034C000880F91E0811101C090E0892F089585B7A0
:1034D000806885BF85B7806885BF08951F921FB635
:1034E0001F9211248F939F93AF93BF9380912C02CF
:1034F000811113C080914C0290914D02A0914E0217
:10350000B0914F024196A11DB11D80934C02909342
:103510004D02A0934E02B0934F02BF91AF919F9185
:103520008F911F901FBE1F90189580915402843078
:1035300031F10E94AC0210922C0288E190E020E46C
:103540000FB6F894A895809360000FBE209360009A
:1035500083B7817F846083BF83B7816083BF7894A2
:10356000889583B78E7F83BF0FB6F894A895809116
:103570006000886180936000109260000FBE089523
:103580000E9449060E94B302089582E084BD93E040
:1035900095BD9AEF97BD80936E0008952FB7F8946C
:1035A00080914C0290914D02A0914E02B0914F0239
:1035B0002FBF08952FB7F89460914C0270914D027F
:1035C00080914E0290914F022FBF08959C014FB7FA
:1035D000F89480914C0290914D02A0914E02B091CE
:1035E0004F024FBF821B930B089578941F921FB612
:1035F0001F9211248F939F93AF93BF9380914C029E
:1036000090914D02A0914E02B0914F020196A11DE2
:10361000B11D80934C0290934D02A0934E02B09343
:103620004F02BF91AF919F918F911F901FBE1F902E
:10363000189581E08093E00080E28093D80010929A
:10364000C9008FE19EE40197F1F700C0000087E018
:1036500090EBDC0180935D0290935E02A0935F0289
:10366000B093600288E19CE00FB6F894A89580932F
:1036700060000FBE90936000FFCF88E19CE00FB622
:10368000F894A895809360000FBE90936000FFCFE0
:103690008091350208959B01BA01909154029430B3
:1036A000E9F48F708093E9009FEF8091E8009150DA
:1036B00085FD06C085ED8A95F1F700009111F5CFE3
:1036C0008091E80085FF0AC050E040E0C9010E94F7
:1036D000451D8091E8008E778093E800089543E0CF
:1036E00050E0BC0182E00E944B1B089546E050E090
:1036F000BC0182E00E944B1B0895CF93DF93EC0145
:1037000048E050E0BC0181E00E944B1B88E0FE01D4
:10371000ADE2B2E001900D928A95E1F7DF91CF9191
:10372000089580915302811109C00E94D51E0E9404
:10373000321F8091E20084608093E200089510922D
:10374000530208950E94451A08956091500281E045
:10375000611101C080E00E943C1A089590915402CA
:1037600081E0943009F080E0609150020E94421A9A
:10377000089542E061EC81E00E94511E42E261EC5A
:1037800082E00E94511E9091540281E0943009F031
:1037900080E0609150020E94321A08958091560292
:1037A000833009F461C030F48130D1F1823009F402
:1037B0009EC008958A3009F48AC08B3009F46FC026
:1037C000893009F050C080915502813209F04BC018
:1037D0008091590290915A02029708F044C080915A
:1037E000E800877F8093E8008091E80082FF37C07F
:1037F0009091F3008091F200029731F48091F100F2
:10380000813011F0863021F48091F10080933502EF
:103810008091E8008B778093E8000E94851E23C08A
:1038200080915502813AF9F48091E800877F809376
:10383000E8008091590290915A02892B61F468E066
:103840008DE292E070E00E94941D8091E8008B77F9
:103850008093E800089560E090E080E0F3CF8091ED
:1038600054028111C1CF089580915502813AD9F750
:103870008091590290915A02892BA9F78091E80012
:10388000877F8093E8008091E80080FFFCCF8091E3
:1038900018018093F1008091E8008E77BCCF809171
:1038A0005502813201F78091590290915A02892B79
:1038B000D1F68091E800877F8093E8000E94851E02
:1038C00080915702809318010E94490608958091C3
:1038D0005502813241F68091E800877F8093E800AD
:1038E0000E94851E8091580280933602089580912F
:1038F0005502813A09F0B7CF8091E800877F809325
:10390000E8008091E80080FFFCCF80913602C1CFB3
:1039100084B7877F84BF0FB6F894A8958091600024
:10392000886180936000109260000FBE80E890E094
:103930000FB6F89480936100909361000FBE0E94CF
:103940004B1A08950E94D51E0E94321FE2EEF0E04D
:1039500080818460808378940E94B121089580E101
:1039600091E00E945A19089580915402853031F4F3
:1039700080915402853019F00E94C01A08950E9467
:10398000951A80915202882399F30E94581A88232D
:1039900079F30E942F1D0E944906EACF08959A01EB
:1039A00040915B0250915C020E94D71C0895492F00
:1039B00055274330510519F168F44130510509F498
:1039C00044C04230510509F445C090E080E050E029
:1039D00040E025C04132510549F142325105A9F775
:1039E00080E490E046EF52E061157105C1F08BE78D
:1039F00090E04BE752E06130710589F0E6CF9927FE
:103A00008130910581F0009729F00297F1F6E2E00C
:103A1000F2E002C0EAE2F2E0849190E0AF01F90145
:103A2000518340830895EAE0F2E0F6CF89E090E028
:103A300040E452E06115710591F389E090E049E5B9
:103A400052E06130710559F3C0CF82E190E049E660
:103A500052E0E5CF8BE390E04EE252E0E0CF80E130
:103A600089BD82E189BD09B400FEFDCF8091D800F7
:103A70008F7D8093D8008091E00082608093E00089
:103A80008091E00081FDFCCF0895AF92BF92CF926C
:103A9000DF92FF920F931F93CF93DF936C01EB01A3
:103AA0008A010E94A41EF82E811123C00115110560
:103AB00039F0F80180819181C81BD90BC80ED91E3D
:103AC000B12CA12C2097A9F08091E80085FD22C09F
:103AD0008091E8008E778093E80001151105A1F030
:103AE000F80180819181A80EB91EB182A08285E083
:103AF000F82E8F2DDF91CF911F910F91FF90DF90C6
:103B0000CF90BF90AF9008950E94A41E8823D1F259
:103B1000F82EEFCFF60181916F018093F10021978C
:103B2000FFEFAF1ABF0ACECFFC0180915B029091EC
:103B30005C0286179707A0F06115710529F4909132
:103B4000E8009E779093E80090E06115710551F4CC
:103B5000911108C08091E80082FF34C080E0089590
:103B6000BC01F2CF809154028823C1F18530C1F1AC
:103B70008091E80083FD30C08091E80082FDEACFAB
:103B80008091E80080FFE1CF8091F3002091F20066
:103B9000382F6115710519F02830310558F091E082
:103BA0002830310509F090E02091E8002E7720932D
:103BB000E800CBCF81918093F100615071092F5FB4
:103BC0003F4FE7CF80915402882341F0853041F088
:103BD0008091E80083FFBECF81E0089582E00895E0
:103BE00083E00895FC0180915B0290915C0286174E
:103BF0009707A0F06115710529F48091E8008E7790
:103C00008093E80090E06115710551F4911108C0AE
:103C10008091E80082FF35C080E00895BC01F2CFBA
:103C2000809154028823C9F18530C9F18091E80060
:103C300083FD31C08091E80082FDEACF8091E800E9
:103C400080FFE1CF8091F3002091F200382F6115C1
:103C5000710519F02830310558F091E02830310510
:103C600009F090E08091E8008E778093E800CBCF58
:103C700084918093F1003196615071092F5F3F4F1D
:103C8000E6CF80915402882341F0853041F0809145
:103C9000E80083FFBDCF81E0089582E0089583E0CE
:103CA0000895982F973028F08F708093E90081E075
:103CB00008959093E900242F762F50E0981731F063
:103CC0007091EC002091ED005091F00021FD02C0B8
:103CD0009F5FE8CF3091EB003E7F3093EB00309157
:103CE000ED003D7F3093ED003091EB00316030937B
:103CF000EB007093EC002093ED005093F0002091C6
:103D0000EE0027FDE5CF80E008958091550287FF02
:103D100013C08091E80082FF06C08091E8008B7795
:103D20008093E80004C0809154028111F2CF08957D
:103D3000809154028823D9F38091E80080FFF8CF66
:103D40008091E8008E77ECCF2091E4003091E5007F
:103D500095E6A9012091EC00822F817020FF06C01A
:103D60008091E80080FF06C080E008952091E8007F
:103D700022FD1AC080915402882389F0853089F091
:103D80008091EB0085FD0FC02091E4003091E500AB
:103D900042175307F9F29150E1F684E0089582E06A
:103DA000089583E0089581E008950E94441F0E94D1
:103DB0004C1FE0EEF0E0808181608083E8EDF0E070
:103DC00080818F77808319BCA7EDB0E08C918E7FC6
:103DD0008C9380818F7E80831092530208950F937D
:103DE0001F93CF93DF930E94441F0E944C1FC8ED86
:103DF000D0E088818F7788838881806888838881F4
:103E00008F7D888319BC1092540210925002109238
:103E100052021092510200EE10E0F80180818B7F77
:103E2000808388818160888342E060E080E00E9436
:103E3000511EE1EEF0E080818E7F8083E2EEF0E0C3
:103E4000808181608083808188608083F8018081A7
:103E50008E7F8083888180618883DF91CF911F91DD
:103E60000F910895E8EDF0E080818F7E8083E7ED8B
:103E7000F0E080818160808384E082BF81E0809374
:103E800053020E94EF1E0895E8EDF0E080818E7FDE
:103E900080831092E20008951092DA001092E100FF
:103EA00008951F920F920FB60F9211242F933F93F4
:103EB0004F935F936F937F938F939F93AF93BF9332
:103EC000EF93FF938091E10082FF0BC08091E200AD
:103ED00082FF07C08091E1008B7F8093E1000E9408
:103EE000B0218091DA0080FF19C08091D80080FF56
:103EF00015C08091DA008E7F8093DA008091D9001E
:103F000080FF96C080E189BD82E189BD09B400FED1
:103F1000FDCF81E0809354020E94911B8091E100CB
:103F200080FF19C08091E20080FF15C08091E200FF
:103F30008E7F8093E2008091E20080618093E200B6
:103F40008091D80080628093D80019BC85E080936E
:103F500054020E94A51B8091E10084FF2BC0809138
:103F6000E20084FF27C080E189BD82E189BD89B577
:103F7000982F917080FFFBCF8091D8008F7D809328
:103F8000D8008091E1008F7E8093E1008091E20073
:103F90008F7E8093E2008091E20081608093E20056
:103FA00080915002882309F449C084E08093540230
:103FB0000E94AE1B8091E10083FF29C08091E20046
:103FC00083FF25C08091E100877F8093E10082E03C
:103FD00080935402109250028091E1008E7F809372
:103FE000E1008091E2008E7F8093E2008091E20008
:103FF00080618093E20042E060E080E00E94511E18
:104000008091F00088608093F0000E94A21BFF91D5
:10401000EF91BF91AF919F918F917F916F915F9140
:104020004F913F912F910F900FBE0F901F901895B9
:1040300019BC109254020E949F1B70CF8091E30024
:1040400087FD93E090935402B3CF1F920F920FB667
:104050000F9211242F933F934F935F936F937F930E
:104060008F939F93AF93BF93CF93DF93EF93FF9380
:10407000D091E900DF708091EC00C82FC17080FD05
:10408000C0E81092E9008091F000877F8093F000F3
:1040900078940E9469201092E9008091F000886075
:1040A0008093F000CD2BCF70C093E900FF91EF918A
:1040B000DF91CF91BF91AF919F918F917F916F9140
:1040C0005F914F913F912F910F900FBE0F901F90D6
:1040D0001895AAE2B0E0EFE6F0E20C94522585E5EF
:1040E00092E02091F100FC012193CF01F2E08D35A7
:1040F0009F07B9F70E94CE1B8091E80083FF1EC185
:1041000080915502909156029A3008F017C1E92F1C
:10411000F0E0EF5CF94D0C943D25803899F0823841
:1041200009F00CC1809159028F70873008F006C1E8
:104130008093E9008091EB0085FB882780F910923D
:10414000E90006C080915102909152029111826063
:104150009091E800977F9093E8008093F10010928F
:10416000F1008091E8008E77E5C0882309F4D3C080
:10417000823009F0E3C0809157028111D6C080914E
:1041800059028F702FEF280F263008F0D7C0809388
:10419000E9002091EB0020FFC8C0933031F48091FA
:1041A000EB0080628093EB00C0C09091EB009061C7
:1041B0009093EB0021E030E001C0220F8A95EAF7EE
:1041C0002093EA001092EA008091EB008860EACF29
:1041D0008111B4C0109157021F778091E30080785D
:1041E000812B8093E3008091E800877F8093E80033
:1041F0000E94851E8091E80080FFFCCF8091E30043
:1042000080688093E30082E0111183E08093540280
:1042100095C08058823008F091C0809157029091EB
:1042200058028C3D23E09207A1F583E08A838AE25D
:1042300089834FB7F894DE01139620E03EE051E207
:10424000E32FF0E050935700E49120FF03C0E29584
:10425000EF703F5FEF708E2F90E0EA30C0F0C796AE
:104260008D939D932F5F243159F74FBF8091E800C4
:10427000877F8093E8006AE270E0CE0101960E9499
:10428000941D8091E8008B778093E80057C0C0961A
:10429000E7CF6091590270915A02AE014F5F5F4FB4
:1042A0000E94CF1CBC01892B09F448C09091E80002
:1042B000977F9093E80089819A810E94F21DE1CF57
:1042C0008038E1F58091E800877F8093E800809155
:1042D00050028093F10045CF811130C09091570278
:1042E000923060F58091E800877F8093E80090939A
:1042F00050020E94851E80915002882311F084E0B4
:1043000005C08091E30087FDFACF81E080935402DD
:104310000E94B91B13C080915702813079F481E06B
:10432000933009F080E0809352021092E90080916E
:10433000E800877F8093E8000E94851E8091E80056
:1043400083FF0AC08091E800877F8093E800809116
:10435000EB0080628093EB00AA96E3E00C946E255C
:104360000895CF93809154028823A1F0C091E90071
:10437000CF709091EC00892F817090FD80E8C82B60
:104380001092E9008091E80083FD0E946920CF70BF
:10439000C093E900CF9108955058BB27AA270E94E7
:1043A000E4210C948F230E94812338F00E948823FB
:1043B00020F039F49F3F19F426F40C9457230EF49F
:1043C000E095E7FB0C945123E92F0E94A02358F3BA
:1043D000BA17620773078407950720F079F4A6F5EA
:1043E0000C94C2230EF4E0950B2EBA2FA02D0B01D6
:1043F000B90190010C01CA01A0011124FF27591B2A
:1044000099F0593F50F4503E68F11A16F040A22F2F
:10441000232F342F4427585FF3CF469537952795A0
:10442000A795F0405395C9F77EF41F16BA0B620B9F
:10443000730B840BBAF09150A1F0FF0FBB1F661FE6
:10444000771F881FC2F70EC0BA0F621F731F841F29
:1044500048F4879577956795B795F7959E3F08F04F
:10446000B0CF9395880F08F09927EE0F9795879511
:1044700008950E944D220C948F230E94882358F0A7
:104480000E94812340F029F45F3F29F00C945123CE
:1044900051110C94C3230C9457230E94A02368F35A
:1044A0009923B1F3552391F3951B550BBB27AA27ED
:1044B00062177307840738F09F5F5F4F220F331F27
:1044C000441FAA1FA9F335D00E2E3AF0E0E832D0EF
:1044D00091505040E695001CCAF72BD0FE2F29D0F2
:1044E000660F771F881FBB1F261737074807AB07C4
:1044F000B0E809F0BB0B802DBF01FF2793585F4F39
:104500003AF09E3F510578F00C9451230C94C3234C
:104510005F3FE4F3983ED4F3869577956795B7951A
:10452000F7959F5FC9F7880F911D9695879597F925
:104530000895E1E0660F771F881FBB1F621773079E
:104540008407BA0720F0621B730B840BBA0BEE1FB3
:1045500088F7E095089529F416F00C9451230C94F3
:10456000C2230C9457230E94A823A8F39638A0F7DF
:1045700007F80F92E8942BE33AEA48EB5FE70E94D2
:1045800055240F920F920F924DB75EB70F920E9473
:104590000B24ECEAF0E00E945A234F915F91EF91D7
:1045A000FF91E595EE1FFF1F49F0FE57E068442795
:1045B000EE0F441FFA95E1F74195550B0E94D52364
:1045C0000F9007FE0C94C92308950E94A82388F039
:1045D0009F5798F0B92F9927B751B0F0E1F0660FC7
:1045E000771F881F991F1AF0BA95C9F714C0B13008
:1045F00091F00E94C223B1E008950C94C223672F6A
:10460000782F8827B85F39F0B93FCCF38695779536
:104610006795B395D9F73EF490958095709561951F
:104620007F4F8F4F9F4F0895E89409C097FB3EF44A
:1046300090958095709561957F4F8F4F9F4F9923EF
:10464000A9F0F92F96E9BB279395F695879577956D
:104650006795B795F111F8CFFAF4BB0F11F460FF2D
:104660001BC06F5F7F4F8F4F9F4F16C0882311F085
:1046700096E911C0772321F09EE8872F762F05C099
:10468000662371F096E8862F70E060E02AF09A9534
:10469000660F771F881FDAF7880F9695879597F929
:1046A000089597F99F6780E870E060E008959FEFB4
:1046B00080EC0895DF93CF931F930F93FF92EF92B7
:1046C000DF927B018C01689406C0DA2EEF010E9414
:1046D0005224FE01E894A59125913591459155917B
:1046E000A6F3EF010E94E421FE019701A801DA94EC
:1046F00069F7DF90EF90FF900F911F91CF91DF91BD
:10470000089500240A941616170618060906089537
:1047100000240A9412161306140605060895092E9D
:104720000394000C11F4882352F0BB0F40F4BF2B0C
:1047300011F460FF04C06F5F7F4F8F4F9F4F08954C
:1047400057FD9058440F551F59F05F3F71F0479542
:10475000880F97FB991F61F09F3F79F08795089527
:10476000121613061406551FF2CF4695F1DF08C046
:10477000161617061806991FF1CF86957105610563
:1047800008940895E894BB2766277727CB0197F90B
:1047900008959B01AC0160E070E080E89FE30C9419
:1047A00039220C9451230C94B4240E94A823D8F3EA
:1047B0009923C9F3940F511DA3F39150504094F0E5
:1047C00059F0882332F0660F771F881F91505040B0
:1047D000C1F79E3F51052CF7880F911D969587953F
:1047E00097F908955F3FACF0983E9CF0BB27869503
:1047F00077956795B79508F4B1609395C1F7BB0FAE
:1048000058F711F460FFE8CF6F5F7F4F8F4F9F4FD6
:10481000E3CF0C94C323FA01DC01AA0FBB1F9B0159
:10482000AC01BF5728F4222733274427507820C0F3
:10483000B75190F4AB2F0024469537952795011C6E
:10484000A395D2F3002071F0220F331F441FB395BC
:10485000DAF30ED00C94CC2161307105A0E88A0700
:10486000B94630F49B01AC016627772788279078FA
:10487000309621F0208331834283538308950E9430
:1048800052240C948F230E94812338F00E948823A5
:1048900020F0952311F00C9451230C9457231124EC
:1048A0000C94C3230E94A02370F3959FC1F3950F2E
:1048B00050E0551F629FF001729FBB27F00DB11DA4
:1048C000639FAA27F00DB11DAA1F649F6627B00D34
:1048D000A11D661F829F2227B00DA11D621F739F1D
:1048E000B00DA11D621F839FA00D611D221F749F2B
:1048F0003327A00D611D231F849F600D211D822F72
:10490000762F6A2F11249F5750409AF0F1F0882398
:104910004AF0EE0FFF1FBB1F661F771F881F9150C5
:104920005040A9F79E3F510580F00C9451230C9400
:10493000C3235F3FE4F3983ED4F38695779567955C
:10494000B795F795E7959F5FC1F7FE2B880F911DEF
:104950009695879597F908959F930E94C4240F9088
:1049600007FCEE5F0C94ED249F3F31F0915020F452
:10497000879577956795B795880F911D969587953B
:1049800097F908950C9457230E94A823D8F3E8942C
:10499000E0E0BB279F57F0F02AED3FE049EC06C06E
:1049A000EE0FBB0F661F771F881F28F0B23A620711
:1049B0007307840728F0B25A620B730B840BE395DC
:1049C0009A9572F7803830F49A95BB0F661F771F5F
:1049D000881FD2F790480C94B624EF93E0FF07C0ED
:1049E000A2EA2AED3FE049EC5FEB0E94E4210E943D
:1049F0008F230F90039401FC9058E4EDF0E00C94A9
:104A000001259F938F937F936F93FF93EF939B0168
:104A1000AC010E943F24EF91FF910E945A232F91F5
:104A20003F914F915F910C943F24AA1BBB1B51E116
:104A300007C0AA1FBB1FA617B70710F0A61BB70B0E
:104A4000881F991F5A95A9F780959095BC01CD01B3
:104A5000089597FB072E16F4009407D077FD09D030
:104A60000E94152507FC05D03EF4909581959F4F37
:104A70000895709561957F4F0895EE0FFF1F059083
:104A8000F491E02D09942F923F924F925F926F9292
:104A90007F928F929F92AF92BF92CF92DF92EF92CE
:104AA000FF920F931F93CF93DF93CDB7DEB7CA1B4F
:104AB000DB0B0FB6F894DEBF0FBECDBF09942A887A
:104AC000398848885F846E847D848C849B84AA8422
:104AD000B984C884DF80EE80FD800C811B81AA81AF
:104AE000B981CE0FD11D0FB6F894DEBF0FBECDBF7A
:104AF000ED010895FC014150504030F00190061640
:104B0000D1F73197CF010895882799270895FB01A0
:104B1000DC0104C08D910190801921F44150504076
:104B2000C8F7881B990B0895FB01DC0102C00190B6
:104B30000D9241505040D8F70895F999FECF92BD9B
:104B400081BDF89A992780B50895A6E1B0E044E0C8
:104B500050E00C94D725A8E1B0E042E050E00C947E
:104B6000D725262FF999FECF92BD81BDF89A0197DE
:104B700000B4021639F01FBA20BD0FB6F894FA9AA5
:104B8000F99A0FBE08950396272F0E94B2250E941E
:104B9000B125252F0E94B225242F0C94B225019611
:104BA000272F0E94B2250C94B125DC01CB01FC011A
:104BB000F999FECF06C0F2BDE1BDF89A319600B476
:104BC0000D9241505040B8F70895F894FFCF2C044F
:104BD0002C047D047D04F0040C055B045B041105CA
:104BE0008205910591052F1736173D174217471774
:104BF0004C17511756175B17601765176A176E1712
:104C000073177617311731173117311731173117DD
:104C1000FF1773180718D117D5170B18D9170F18C6
:104C20001B18E5176C18E9171F18ED1723184B18F8
:104C3000F11727185218F7172D183518DD17131804
:104C4000E1171718FB17311841185B186A18CB17B2
:104C500003187A182E1934191D1928193A194019F0
:104C600046198D20B5209E21B5209E21E8200921DE
:064C70009E2160216C2171
:104C7600F001280850011E0A140100040004040172
:104C8600481B7D1B761B6F1B01E200E900EA00B59D
:104C960000B600B700CD008301CC008A01920194D2
:104CA600012102230224022502260227022A02B338
:104CB60000B4006F0070009F01CB019F02A002812B
:104CC6008283E200E900EA00B500B600B700CD0035
:104CD6008301CC008A01920194012102230224025D
:104CE6002502260227022A02B300B4006F007000D4
:104CF6009F01CB019F02A0028182839796940001B7
:0E4D060002020202060606090909090909004F
:00000001FF
